:100000000C94D7000C94FF000C94FF000C94FF009C
:100010000C94FF000C94FF000C94FF000C94FF0064
:100020000C94FF000C94FF000C94E9030C94520410
:100030000C94FF000C94FF000C94FF000C94FF0044
:100040000C94FF000C94FF000C94FF000C94FF0034
:100050000C94FF000C94FF000C94FF000C94940689
:100060000C94FF000C94FF000C94FF000C94FF0014
:100070000C94FF000C94FF000C94FF000C94FF0004
:100080000C94FF000C94FF000C94FF000C94FF00F4
:100090000C94FF000C94FF000C94FF000C94FF00E4
:1000A0000C94FF000C94FF000C94FF000000000073
:1000B000240027002A002D00300000000000250049
:1000C00028002B002E003100000000002300260035
:1000D00029002C002F000404040404030405020278
:1000E00002020403020202020606060606060404D1
:1000F0000202020404040802011040804010204063
:10010000804080080204018040201002011080100D
:10011000204040200000000200090F0000030401FD
:10012000000C0000000000000000000000000000C3
:10013000000000080B000202020000090400000198
:10014000020200000524001001052401010104241D
:10015000020605240600010705810310004009047A
:100160000100020A00000007050202400000070526
:1001700083024000000403090412010002EF02019F
:10018000409A230D800001010203014164616672FF
:1001900075697400497473794269747379203332D4
:1001A000753420335620384D487A0000DE0611247D
:1001B0001FBECFEFDAE0DEBFCDBF11E0A0E0B1E0BF
:1001C000EAE6F1E102C005900D92A836B107D9F731
:1001D00021E0A8E6B1E001C01D92A93FB207E1F716
:1001E00010E0C7EDD0E004C02197FE010E949908FD
:1001F000C63DD107C9F70E94F3060C94B3080C94CE
:1002000000009091F801911103C08FEF9FEF0895C6
:100210004FB7F89492E09093E9009091F200292F63
:1002200030E01216130614F421E030E0232B29F0FD
:1002300084E68093F7018091F100992339F02091B1
:10024000F200211103C02BE62093E8004FBF992351
:10025000E1F290E008952FB7F89483E08093E900ED
:100260009091E800892F807295FF04C09091F20070
:1002700080E4891B2FBF08958091EF0181110DC08B
:1002800082E08093EB0184E08093EC011092EE0118
:100290001092ED0181E08093EF018BEE91E00895E3
:1002A000CF93DF931F92CDB7DEB76983DC01ED9169
:1002B000FC910280F381E02D41E050E0BE016F5FD0
:1002C0007F4F09950F90DF91CF91089583E0809340
:1002D000E9008091F200882319F08AE38093E80016
:1002E00008950E942B0190E00895FC018485958576
:1002F00097FD05C02FEF3FEF3587248708950C94B5
:100300000101CF93DF93EC018C859D8597FF04C09D
:100310000E9401019D878C878C859D85DF91CF91FF
:100320000895FC018485958597FD0BC09FB7F894CF
:1003300082E08093E9008091F2009FBF90E00196F7
:1003400008959FB7F89482E08093E9008091F200CD
:100350009FBF90E0089540919501509196012091A2
:1003600093013091940142175307B4F49091E8003F
:100370009570E1F39091E80092FD19C08093F1002F
:10038000809195019091960101968F739927892B01
:1003900019F48EEF8093E800809195019091960179
:1003A0000196909396018093950181E0089580E0F5
:1003B0000895EF92FF920F931F93CF93DF93F82E40
:1003C000192FE62E042F81E0860F880F0E94AB01C3
:1003D00083E00E94AB01CF2DD12FEC0EFD2EF11C3E
:1003E000CE15DF05B9F007FF13C0FE0184910E940E
:1003F000AB01182F80E00E94AB018123219681116F
:10040000EFCFDF91CF911F910F91FF90EF90089563
:100410008881EDCF81E0F5CFDF92EF92FF920F93CD
:100420001F93CF93DF93D82E8A01EB017B01E40E5B
:10043000F51ECE15DF0559F0D7FE12C0FE018491DE
:100440000E94AB0121968111F4CF0FEF1FEFC8017D
:10045000DF91CF911F910F91FF90EF90DF90089562
:100460008881EECF0F931F93CF93DF931F92CDB769
:10047000DEB782E0898342E450E063E371E080E824
:100480000E940C020E943C01DC0112960D911C910D
:100490000115110589F0D801ED91FC910280F381DD
:1004A000E02DBE016F5F7F4FC801099597FD04C025
:1004B000F80100851185ECCF89810F90DF91CF91F4
:1004C0001F910F91089581508F3008F047C0E82F99
:1004D000F0E0E359FD4F0C9499088A028E027C02E9
:1004E00082028602AE02AE02AE02910297029B0227
:1004F0009F02A502AE02A902809180008F778093AF
:1005000080000895809180008F7DF9CF80918000D8
:10051000877FF5CF84B58F7784BD089584B58F7DAF
:10052000FBCF809190008F77809390000895809109
:1005300090008F7DF9CF80919000877FF5CF8091DB
:10054000C0008F778093C00008958091C0008F7D98
:10055000F9CF8091C200877F8093C20008951F93D6
:10056000CF93DF93282F30E0F901EC5EFE4F8491AA
:10057000F901EB50FF4FD491F901EA52FF4FC491BA
:10058000CC23A9F0162F81110E946302EC2FF0E01A
:10059000EE0FFF1FE654FF4FA591B4918FB7F8946B
:1005A000EC91111108C0D095DE23DC938FBFDF9151
:1005B000CF911F910895DE2BF8CFCF93DF9390E07A
:1005C000FC01EB50FF4F24918A529F4FFC01849114
:1005D0008823D1F090E0880F991FFC01E455FF4F6C
:1005E000A591B491FC01E654FF4FC591D4916111DE
:1005F0000EC09FB7F8948C91E22FE0958E238C93D8
:100600002881E223E8839FBFDF91CF9108958FB7C0
:10061000F894EC91E22BEC938FBFF6CF3FB7F894B0
:1006200080916D0190916E01A0916F01B091700168
:1006300026B5A89B05C02F3F19F00196A11DB11D3D
:100640003FBFBA2FA92F982F8827BC01CD01620F79
:10065000711D811D911D43E0660F771F881F991F33
:100660004A95D1F708958F929F92AF92BF92CF9201
:10067000DF92EF92FF924B015C010E940E036B012F
:100680007C010E940E036C197D098E099F09683E4A
:10069000734081059105A8F321E0821A9108A10811
:1006A000B10888EEC80E83E0D81EE11CF11C81144D
:1006B0009104A104B10429F7FF90EF90DF90CF904F
:1006C000BF90AF909F908F9008958F929F92AF921E
:1006D000BF92CF92DF92EF92FF920F931F93CF932F
:1006E000DF936C017B018A0180910B01882309F45F
:1006F0005BC08091F801882309F456C080919A016B
:1007000080FF05C08091E00082608093E000E801F6
:10071000B12C8AEFA82E93E0892E2AE3922E2097FF
:1007200011F4BB20D9F10E942B0181110AC0AA94B7
:10073000AA20D1F161E070E080E090E00E943303F4
:10074000EECF8C171D0611F00CF08C2F9FB7F8948C
:100750008092E9002091E80025FD02C09FBFDFCF15
:10076000282F30E0C21BD30BF701815020F04191BC
:100770004093F100FACFE20EF31EBB2021F09092DD
:10078000E800B12CEBCF8091E80085FDE7CF909297
:10079000E800BB24B394209709F3F3CF84E6809359
:1007A0009901101611063CF081E090E0F601938368
:1007B000828310E000E0C801DF91CF911F910F917B
:1007C000FF90EF90DF90CF90BF90AF909F908F9071
:1007D00008951F920F920FB60F9211248F939F933B
:1007E0008091E1009091E100937F9093E10083FF7D
:1007F0000FC01092E90091E09093EB001092EC0092
:1008000092E39093ED001092F80198E09093F0003D
:1008100082FF1CC093E09093E9009091F20099232D
:1008200019F09AE39093E80090919901992329F0A7
:10083000909199019150909399019091F70199238A
:1008400029F09091F70191509093F70184FF18C01F
:100850008091E2008E7E81608093E2008091E100D1
:100860008F7E8093E10080919A018E7E80618093DB
:100870009A019F918F910F900FBE0F901F90189526
:1008800080FFF7CF8091E2008E7E80618093E2004E
:100890008091E1008E7E8093E10080919A018E7EAE
:1008A0008160E5CF1F920F920FB60F921124CF9265
:1008B000DF92EF92FF920F931F932F933F934F93EB
:1008C0005F936F937F938F939F93AF93BF93EF93B8
:1008D000FF93CF93DF93CDB7DEB76C97DEBFCDBF6D
:1008E0001092E9008091E80083FF2FC089E0FE01AB
:1008F0007596EE2EDF2E815029F09091F1009083B5
:100900003196F9CF84E68093F70182EF8093E80077
:100910008D8987FF39C09091E80090FFFCCF982F18
:10092000907609F033C19E894F89588D2F89F88CB4
:10093000911131C0803861F5809198018093F10068
:100940001092F1008EEF8093E8006C960FB6F89449
:10095000DEBF0FBECDBFDF91CF91FF91EF91BF9171
:10096000AF919F918F917F916F915F914F913F9147
:100970002F911F910F91FF90EF90DF90CF900F90EC
:100980000FBE0F901F9018959EEF9093E800C7CF71
:100990001092F100D5CF913059F48111D3CF41306D
:1009A000510581F6809198018D7F80939801CACF7F
:1009B000933049F48111C6CF4130510519F6809129
:1009C00098018260F2CF953041F48091E80080FF79
:1009D000FCCF20682093E300B5CF963009F0A8C083
:1009E0000B8D1C8D22E01092E9001092960110925E
:1009F0009501F2122EC010929401109293010E9460
:100A000032021F8299E09983FA8291E09E8390EAF4
:100A100098879AEF99872091950130919601275FE9
:100A20003F4F3C832B838D831092E90010929601F7
:100A300010929501109394010093930149E050E0C6
:100A4000BE016F5F7F4F80E00E940C020E94320265
:100A500079CF10939401009393010E943C01DC0133
:100A600012960D911C910115110509F457C1D80179
:100A7000ED91FC910480F581E02D6E2D7D2DC80156
:100A80000995009709F045C1F80100851185EBCF64
:100A9000F3E0FF120EC08F89882309F440C0823032
:100AA00061F440E866E184E991E00E94D901811196
:100AB00049CF81E28093EB0048CF813029F440E8B0
:100AC00068E08BE891E0F1CF833099F70E943C0118
:100AD000DC011296ED90FC908E010F5F1F4F6801B4
:100AE000E114F10479F0D701ED91FC910680F781D2
:100AF000E02DB801C7010995080F111DF701E08429
:100B0000F184EECFD8011C92F60101900020E9F7A4
:100B10003197BF016C197D0940E0C601C6CF65E77A
:100B200071E0FB01449150E080E80E940C020ACF82
:100B3000973009F4BECF983021F481E08093F10022
:100B400001CF993009F0FECE837009F0B2CFEFE407
:100B5000F1E081E031E096E32191222371F080936E
:100B6000E9003093EB00DF0111972C912093EC000A
:100B70009093ED008F5F873079F78EE78093EA00DE
:100B80001092EA008F898093F801DCCE8B8D9C8DCA
:100B90001092E900109296011092950190939401A1
:100BA00080939301898D81119AC08E899D89913A94
:100BB00049F4813209F07DCF47E050E064E071E014
:100BC00080E0B3CF913209F074CF833269F48F891A
:100BD000988DB0E0A0E08093000190930101A09374
:100BE0000201B0930301AECE8032A9F48091E800F7
:100BF00082FFFCCF88E0E4E0F1E0815029F09091A1
:100C0000F10090833196F9CF84E68093F7018BEF62
:100C10008093E80097CE823209F094CE8F8980933A
:100C20000B01EEEFFFE7859194918B3F9C4D51F1C5
:100C3000E0E0F8E08091040190910501A0910601A7
:100C4000B0910701803B9440A105B105F1F480917A
:100C50000B0180FD1AC0EE3F8AE0F80789F587E7AF
:100C600097E791838083809160008093970188E16A
:100C70009BE00FB6F894A895809360000FBE909308
:100C8000600060CEEEEFFAE0D5CF808191818737AA
:100C9000974709F057CEA8958091600088618093AE
:100CA00060008091970180936000EE3F2AE0F20798
:100CB00089F08091FE0A9091FF0A9183808342CE51
:100CC000808191818737980751F29093FF0A809332
:100CD000FE0AC5CF1092FF0A1092FE0A33CE0E9480
:100CE0003C01DC0112960D911C910115110509F4CE
:100CF000E0CED801ED91FC910190F081E02D6E2DB8
:100D00007D2DC801099581111DCEF8010085118541
:100D1000ECCF181619060CF415CECBCEF1E0FF126D
:100D2000B7CE69E771E0FDCE1F920F920FB60F921A
:100D300011242F933F938F939F93AF93BF938091F1
:100D4000690190916A01A0916B01B0916C013091A1
:100D5000680126E0230F2D3758F50296A11DB11D1D
:100D6000209368018093690190936A01A0936B01BD
:100D7000B0936C0180916D0190916E01A0916F0113
:100D8000B09170010196A11DB11D80936D019093EA
:100D90006E01A0936F01B0937001BF91AF919F91CD
:100DA0008F913F912F910F900FBE0F901F9018952C
:100DB00029E8230F0396A11DB11DD2CFEBE9F1E085
:100DC0001382128288EE93E0A0E0B0E084839583E2
:100DD000A683B78389E591E0918380838FEF9FEFAE
:100DE000958784870895789484B5826084BD84B59E
:100DF000816084BD85B5826085BD85B5816085BD16
:100E000080916E00816080936E00109281008091CD
:100E10008100826080938100809181008160809355
:100E2000810080918000816080938000809191009A
:100E30008260809391008091910081608093910005
:100E4000809190008160809390008091C1008460C7
:100E50008093C1008091C10082608093C100809125
:100E6000C10081608093C1008091C3008160809344
:100E7000C3008091C00082608093C0008091C20056
:100E800081608093C20080917A00846080937A00B0
:100E900080917A00826080937A0080917A008E7FC0
:100EA00080937A0080917A00806880937A00109213
:100EB000F8011092980110929A018091D7008160F8
:100EC0008093D70080EA8093D80089B58F7E89BD52
:100ED00089B5826089BD09B400FEFDCF61E070E094
:100EE00080E090E00E9433038091D8008F7C806185
:100EF0008093D8008091E000807F8093E000809113
:100F0000E1008E7E8093E1008DE08093E20060E05E
:100F10008AE00E94DD0261E086E00E94DD0261E07D
:100F200088E00E94DD0261E089E00E94DD0260E06D
:100F300086E00E94AF0260E088E00E94AF0260E0BD
:100F400089E00E94AF0264E670E080E090E00E94D9
:100F500033036EE1262E61E0362E7FEF472E70E0E0
:100F6000572EE0EE6E2EE0E07E2EFAE0CF2ED12C52
:100F7000ABE0AA2EB12CB0E08B2EB0E09B2EF1019D
:100F80008491F201C491F301D491DD2329F18111FF
:100F90000E946302ED2FF0E0EE0FFF1FE853FF4FBA
:100FA000A591B4918C91C823B9F060E089E00E94CA
:100FB000AF0260E088E00E94AF0260E086E00E943D
:100FC000AF02109272011092710164E670E080E04D
:100FD00090E00E943303D3CFC0917101D091720190
:100FE000CE01B6010E948508CB01B5010E9485089B
:100FF0009C01CE010496B6010E948508CB01B50183
:101000000E9485081092900110928F011092840125
:1010100010928301109278011092770110927C0156
:1010200010927B011092860110928501F901EE0F5A
:10103000FF1FE45FFE4F408151814130510521F493
:101040005093860140938501FC01EE0FFF1FEE5D7A
:10105000FE4F808191818130910521F490937C0134
:1010600080937B01220F331FF901E85CFE4F8081E2
:1010700091818130910561F49093900180938F016B
:1010800090938401809383019093780180937701FA
:101090001092920110929101009191011091920190
:1010A0000530110534F5F6E0F09FC001F19F900D79
:1010B00011249C012D583E4F7901F901608186E091
:1010C0000E94AF02F701628188E00E94AF02F7013F
:1010D000648189E00E94AF0262E370E080E090E00A
:1010E0000E9433030F5F1F4F1093920100939101F1
:1010F000D3CF2196D0937201C093710181149104D2
:1011000009F43DCF0E9400003ACF97FB072E16F45A
:10111000009407D077FD09D00E949F0807FC05D0F6
:101120003EF4909581959F4F0895709561957F4FFE
:101130000895EE0FFF1F0590F491E02D0994AA1B6E
:10114000BB1B51E107C0AA1FBB1FA617B70710F0B2
:10115000A61BB70B881F991F5A95A9F780959095E4
:0A116000BC01CD010895F894FFCF03
:10116A00FFFFFFFF00E10000000000000000010097
:10117A00010001000100000001000100010001005E
:10118A000000000001000000000000000100000053
:10119A000000000001000000000001000000010042
:1011AA00000001000000010000000100000000C171
:1011BA008081000000000000005001650371016693
:0811CA00019101750181010092
:00000001FF
