:020000040000FA
:100000000C94D7000C94FF000C94FF000C94FF009C
:100010000C94FF000C94FF000C94FF000C94FF0064
:100020000C94FF000C94FF000C94E9030C94520410
:100030000C94FF000C94FF000C94FF000C94FF0044
:100040000C94FF000C94FF000C94FF000C94FF0034
:100050000C94FF000C94FF000C94FF000C94940689
:100060000C94FF000C94FF000C94FF000C94FF0014
:100070000C94FF000C94FF000C94FF000C94FF0004
:100080000C94FF000C94FF000C94FF000C94FF00F4
:100090000C94FF000C94FF000C94FF000C94FF00E4
:1000A0000C94FF000C94FF000C94FF000000000073
:1000B000240027002A002D00300000000000250049
:1000C00028002B002E003100000000002300260035
:1000D00029002C002F000404040404030405020278
:1000E00002020403020202020606060606060404D1
:1000F0000202020404040802011040804010204063
:10010000804080080204018040201002011080100D
:10011000204040200000000200090F0000030401FD
:10012000000C0000000000000000000000000000C3
:10013000000000080B000202020000090400000198
:10014000020200000524001001052401010104241D
:10015000020605240600010705810310004009047A
:100160000100020A00000007050202400000070526
:1001700083024000000403090412010002EF02019F
:10018000409A230D800001010203014164616672FF
:1001900075697400497473794269747379203332D4
:1001A000753420335620384D487A0000DE0611247D
:1001B0001FBECFEFDAE0DEBFCDBF11E0A0E0B1E0BF
:1001C000EAE6F1E102C005900D92A836B107D9F731
:1001D00021E0A8E6B1E001C01D92A93FB207E1F716
:1001E00010E0C7EDD0E004C02197FE010E949908FD
:1001F000C63DD107C9F70E94F3060C94B3080C94CE
:1002000000009091F801911103C08FEF9FEF0895C6
:100210004FB7F89492E09093E9009091F200292F63
:1002200030E01216130614F421E030E0232B29F0FD
:1002300084E68093F7018091F100992339F02091B1
:10024000F200211103C02BE62093E8004FBF992351
:10025000E1F290E008952FB7F89483E08093E900ED
:100260009091E800892F807295FF04C09091F20070
:1002700080E4891B2FBF08958091EF0181110DC08B
:1002800082E08093EB0184E08093EC011092EE0118
:100290001092ED0181E08093EF018BEE91E00895E3
:1002A000CF93DF931F92CDB7DEB76983DC01ED9169
:1002B000FC910280F381E02D41E050E0BE016F5FD0
:1002C0007F4F09950F90DF91CF91089583E0809340
:1002D000E9008091F200882319F08AE38093E80016
:1002E00008950E942B0190E00895FC018485958576
:1002F00097FD05C02FEF3FEF3587248708950C94B5
:100300000101CF93DF93EC018C859D8597FF04C09D
:100310000E9401019D878C878C859D85DF91CF91FF
:100320000895FC018485958597FD0BC09FB7F894CF
:1003300082E08093E9008091F2009FBF90E00196F7
:1003400008959FB7F89482E08093E9008091F200CD
:100350009FBF90E0089540919501509196012091A2
:1003600093013091940142175307B4F49091E8003F
:100370009570E1F39091E80092FD19C08093F1002F
:10038000809195019091960101968F739927892B01
:1003900019F48EEF8093E800809195019091960179
:1003A0000196909396018093950181E0089580E0F5
:1003B0000895EF92FF920F931F93CF93DF93F82E40
:1003C000192FE62E042F81E0860F880F0E94AB01C3
:1003D00083E00E94AB01CF2DD12FEC0EFD2EF11C3E
:1003E000CE15DF05B9F007FF13C0FE0184910E940E
:1003F000AB01182F80E00E94AB018123219681116F
:10040000EFCFDF91CF911F910F91FF90EF90089563
:100410008881EDCF81E0F5CFDF92EF92FF920F93CD
:100420001F93CF93DF93D82E8A01EB017B01E40E5B
:10043000F51ECE15DF0559F0D7FE12C0FE018491DE
:100440000E94AB0121968111F4CF0FEF1FEFC8017D
:10045000DF91CF911F910F91FF90EF90DF90089562
:100460008881EECF0F931F93CF93DF931F92CDB769
:10047000DEB782E0898342E450E063E371E080E824
:100480000E940C020E943C01DC0112960D911C910D
:100490000115110589F0D801ED91FC910280F381DD
:1004A000E02DBE016F5F7F4FC801099597FD04C025
:1004B000F80100851185ECCF89810F90DF91CF91F4
:1004C0001F910F91089581508F3008F047C0E82F99
:1004D000F0E0E359FD4F0C9499088A028E027C02E9
:1004E00082028602AE02AE02AE02910297029B0227
:1004F0009F02A502AE02A902809180008F778093AF
:1005000080000895809180008F7DF9CF80918000D8
:10051000877FF5CF84B58F7784BD089584B58F7DAF
:10052000FBCF809190008F77809390000895809109
:1005300090008F7DF9CF80919000877FF5CF8091DB
:10054000C0008F778093C00008958091C0008F7D98
:10055000F9CF8091C200877F8093C20008951F93D6
:10056000CF93DF93282F30E0F901EC5EFE4F8491AA
:10057000F901EB50FF4FD491F901EA52FF4FC491BA
:10058000CC23A9F0162F81110E946302EC2FF0E01A
:10059000EE0FFF1FE654FF4FA591B4918FB7F8946B
:1005A000EC91111108C0D095DE23DC938FBFDF9151
:1005B000CF911F910895DE2BF8CFCF93DF9390E07A
:1005C000FC01EB50FF4F24918A529F4FFC01849114
:1005D0008823D1F090E0880F991FFC01E455FF4F6C
:1005E000A591B491FC01E654FF4FC591D4916111DE
:1005F0000EC09FB7F8948C91E22FE0958E238C93D8
:100600002881E223E8839FBFDF91CF9108958FB7C0
:10061000F894EC91E22BEC938FBFF6CF3FB7F894B0
:1006200080916D0190916E01A0916F01B091700168
:1006300026B5A89B05C02F3F19F00196A11DB11D3D
:100640003FBFBA2FA92F982F8827BC01CD01620F79
:10065000711D811D911D43E0660F771F881F991F33
:100660004A95D1F708958F929F92AF92BF92CF9201
:10067000DF92EF92FF924B015C010E940E036B012F
:100680007C010E940E036C197D098E099F09683E4A
:10069000734081059105A8F321E0821A9108A10811
:1006A000B10888EEC80E83E0D81EE11CF11C81144D
:1006B0009104A104B10429F7FF90EF90DF90CF904F
:1006C000BF90AF909F908F9008958F929F92AF921E
:1006D000BF92CF92DF92EF92FF920F931F93CF932F
:1006E000DF936C017B018A0180910B01882309F45F
:1006F0005BC08091F801882309F456C080919A016B
:1007000080FF05C08091E00082608093E000E801F6
:10071000B12C8AEFA82E93E0892E2AE3922E2097FF
:1007200011F4BB20D9F10E942B0181110AC0AA94B7
:10073000AA20D1F161E070E080E090E00E943303F4
:10074000EECF8C171D0611F00CF08C2F9FB7F8948C
:100750008092E9002091E80025FD02C09FBFDFCF15
:10076000282F30E0C21BD30BF701815020F04191BC
:100770004093F100FACFE20EF31EBB2021F09092DD
:10078000E800B12CEBCF8091E80085FDE7CF909297
:10079000E800BB24B394209709F3F3CF84E6809359
:1007A0009901101611063CF081E090E0F601938368
:1007B000828310E000E0C801DF91CF911F910F917B
:1007C000FF90EF90DF90CF90BF90AF909F908F9071
:1007D00008951F920F920FB60F9211248F939F933B
:1007E0008091E1009091E100937F9093E10083FF7D
:1007F0000FC01092E90091E09093EB001092EC0092
:1008000092E39093ED001092F80198E09093F0003D
:1008100082FF1CC093E09093E9009091F20099232D
:1008200019F09AE39093E80090919901992329F0A7
:10083000909199019150909399019091F70199238A
:1008400029F09091F70191509093F70184FF18C01F
:100850008091E2008E7E81608093E2008091E100D1
:100860008F7E8093E10080919A018E7E80618093DB
:100870009A019F918F910F900FBE0F901F90189526
:1008800080FFF7CF8091E2008E7E80618093E2004E
:100890008091E1008E7E8093E10080919A018E7EAE
:1008A0008160E5CF1F920F920FB60F921124CF9265
:1008B000DF92EF92FF920F931F932F933F934F93EB
:1008C0005F936F937F938F939F93AF93BF93EF93B8
:1008D000FF93CF93DF93CDB7DEB76C97DEBFCDBF6D
:1008E0001092E9008091E80083FF2FC089E0FE01AB
:1008F0007596EE2EDF2E815029F09091F1009083B5
:100900003196F9CF84E68093F70182EF8093E80077
:100910008D8987FF39C09091E80090FFFCCF982F18
:10092000907609F033C19E894F89588D2F89F88CB4
:10093000911131C0803861F5809198018093F10068
:100940001092F1008EEF8093E8006C960FB6F89449
:10095000DEBF0FBECDBFDF91CF91FF91EF91BF9171
:10096000AF919F918F917F916F915F914F913F9147
:100970002F911F910F91FF90EF90DF90CF900F90EC
:100980000FBE0F901F9018959EEF9093E800C7CF71
:100990001092F100D5CF913059F48111D3CF41306D
:1009A000510581F6809198018D7F80939801CACF7F
:1009B000933049F48111C6CF4130510519F6809129
:1009C00098018260F2CF953041F48091E80080FF79
:1009D000FCCF20682093E300B5CF963009F0A8C083
:1009E0000B8D1C8D22E01092E9001092960110925E
:1009F0009501F2122EC010929401109293010E9460
:100A000032021F8299E09983FA8291E09E8390EAF4
:100A100098879AEF99872091950130919601275FE9
:100A20003F4F3C832B838D831092E90010929601F7
:100A300010929501109394010093930149E050E0C6
:100A4000BE016F5F7F4F80E00E940C020E94320265
:100A500079CF10939401009393010E943C01DC0133
:100A600012960D911C910115110509F457C1D80179
:100A7000ED91FC910480F581E02D6E2D7D2DC80156
:100A80000995009709F045C1F80100851185EBCF64
:100A9000F3E0FF120EC08F89882309F440C0823032
:100AA00061F440E866E184E991E00E94D901811196
:100AB00049CF81E28093EB0048CF813029F440E8B0
:100AC00068E08BE891E0F1CF833099F70E943C0118
:100AD000DC011296ED90FC908E010F5F1F4F6801B4
:100AE000E114F10479F0D701ED91FC910680F781D2
:100AF000E02DB801C7010995080F111DF701E08429
:100B0000F184EECFD8011C92F60101900020E9F7A4
:100B10003197BF016C197D0940E0C601C6CF65E77A
:100B200071E0FB01449150E080E80E940C020ACF82
:100B3000973009F4BECF983021F481E08093F10022
:100B400001CF993009F0FECE837009F0B2CFEFE407
:100B5000F1E081E031E096E32191222371F080936E
:100B6000E9003093EB00DF0111972C912093EC000A
:100B70009093ED008F5F873079F78EE78093EA00DE
:100B80001092EA008F898093F801DCCE8B8D9C8DCA
:100B90001092E900109296011092950190939401A1
:100BA00080939301898D81119AC08E899D89913A94
:100BB00049F4813209F07DCF47E050E064E071E014
:100BC00080E0B3CF913209F074CF833269F48F891A
:100BD000988DB0E0A0E08093000190930101A09374
:100BE0000201B0930301AECE8032A9F48091E800F7
:100BF00082FFFCCF88E0E4E0F1E0815029F09091A1
:100C0000F10090833196F9CF84E68093F7018BEF62
:100C10008093E80097CE823209F094CE8F8980933A
:100C20000B01EEEFFFE7859194918B3F9C4D51F1C5
:100C3000E0E0F8E08091040190910501A0910601A7
:100C4000B0910701803B9440A105B105F1F480917A
:100C50000B0180FD1AC0EE3F8AE0F80789F587E7AF
:100C600097E791838083809160008093970188E16A
:100C70009BE00FB6F894A895809360000FBE909308
:100C8000600060CEEEEFFAE0D5CF808191818737AA
:100C9000974709F057CEA8958091600088618093AE
:100CA00060008091970180936000EE3F2AE0F20798
:100CB00089F08091FE0A9091FF0A9183808342CE51
:100CC000808191818737980751F29093FF0A809332
:100CD000FE0AC5CF1092FF0A1092FE0A33CE0E9480
:100CE0003C01DC0112960D911C910115110509F4CE
:100CF000E0CED801ED91FC910190F081E02D6E2DB8
:100D00007D2DC801099581111DCEF8010085118541
:100D1000ECCF181619060CF415CECBCEF1E0FF126D
:100D2000B7CE69E771E0FDCE1F920F920FB60F921A
:100D300011242F933F938F939F93AF93BF938091F1
:100D4000690190916A01A0916B01B0916C013091A1
:100D5000680126E0230F2D3758F50296A11DB11D1D
:100D6000209368018093690190936A01A0936B01BD
:100D7000B0936C0180916D0190916E01A0916F0113
:100D8000B09170010196A11DB11D80936D019093EA
:100D90006E01A0936F01B0937001BF91AF919F91CD
:100DA0008F913F912F910F900FBE0F901F9018952C
:100DB00029E8230F0396A11DB11DD2CFEBE9F1E085
:100DC0001382128288EE93E0A0E0B0E084839583E2
:100DD000A683B78389E591E0918380838FEF9FEFAE
:100DE000958784870895789484B5826084BD84B59E
:100DF000816084BD85B5826085BD85B5816085BD16
:100E000080916E00816080936E00109281008091CD
:100E10008100826080938100809181008160809355
:100E2000810080918000816080938000809191009A
:100E30008260809391008091910081608093910005
:100E4000809190008160809390008091C1008460C7
:100E50008093C1008091C10082608093C100809125
:100E6000C10081608093C1008091C3008160809344
:100E7000C3008091C00082608093C0008091C20056
:100E800081608093C20080917A00846080937A00B0
:100E900080917A00826080937A0080917A008E7FC0
:100EA00080937A0080917A00806880937A00109213
:100EB000F8011092980110929A018091D7008160F8
:100EC0008093D70080EA8093D80089B58F7E89BD52
:100ED00089B5826089BD09B400FEFDCF61E070E094
:100EE00080E090E00E9433038091D8008F7C806185
:100EF0008093D8008091E000807F8093E000809113
:100F0000E1008E7E8093E1008DE08093E20060E05E
:100F10008AE00E94DD0261E086E00E94DD0261E07D
:100F200088E00E94DD0261E089E00E94DD0260E06D
:100F300086E00E94AF0260E088E00E94AF0260E0BD
:100F400089E00E94AF0264E670E080E090E00E94D9
:100F500033036EE1262E61E0362E7FEF472E70E0E0
:100F6000572EE0EE6E2EE0E07E2EFAE0CF2ED12C52
:100F7000ABE0AA2EB12CB0E08B2EB0E09B2EF1019D
:100F80008491F201C491F301D491DD2329F18111FF
:100F90000E946302ED2FF0E0EE0FFF1FE853FF4FBA
:100FA000A591B4918C91C823B9F060E089E00E94CA
:100FB000AF0260E088E00E94AF0260E086E00E943D
:100FC000AF02109272011092710164E670E080E04D
:100FD00090E00E943303D3CFC0917101D091720190
:100FE000CE01B6010E948508CB01B5010E9485089B
:100FF0009C01CE010496B6010E948508CB01B50183
:101000000E9485081092900110928F011092840125
:1010100010928301109278011092770110927C0156
:1010200010927B011092860110928501F901EE0F5A
:10103000FF1FE45FFE4F408151814130510521F493
:101040005093860140938501FC01EE0FFF1FEE5D7A
:10105000FE4F808191818130910521F490937C0134
:1010600080937B01220F331FF901E85CFE4F8081E2
:1010700091818130910561F49093900180938F016B
:1010800090938401809383019093780180937701FA
:101090001092920110929101009191011091920190
:1010A0000530110534F5F6E0F09FC001F19F900D79
:1010B00011249C012D583E4F7901F901608186E091
:1010C0000E94AF02F701628188E00E94AF02F7013F
:1010D000648189E00E94AF0262E370E080E090E00A
:1010E0000E9433030F5F1F4F1093920100939101F1
:1010F000D3CF2196D0937201C093710181149104D2
:1011000009F43DCF0E9400003ACF97FB072E16F45A
:10111000009407D077FD09D00E949F0807FC05D0F6
:101120003EF4909581959F4F0895709561957F4FFE
:101130000895EE0FFF1F0590F491E02D0994AA1B6E
:10114000BB1B51E107C0AA1FBB1FA617B70710F0B2
:10115000A61BB70B881F991F5A95A9F780959095E4
:10116000BC01CD010895F894FFCFFFFFFFFF00E120
:10117000000000000000000001000100010001006B
:10118000000001000100010001000000000001005A
:10119000000000000000010000000000000001004D
:1011A000000000000100000001000000010000003C
:1011B000010000000100000000C18081000000006B
:1011C0000000005001650371016601910175018104
:0211D00001001C
:1070000055C000006EC000006CC000006AC00000E7
:1070100068C0000066C0000064C0000062C00000DC
:1070200060C000005EC0000065C400005AC00000DF
:1070300058C0000056C0000054C0000052C00000FC
:1070400050C000004EC000004CC000004AC000000C
:1070500048C0000046C0000044C0000042C000001C
:1070600040C000003EC000003CC000003AC000002C
:1070700038C0000036C0000034C0000032C000003C
:1070800030C000002EC000002CC000002AC000004C
:1070900028C0000026C0000024C0000022C000005C
:1070A00020C000001EC000001CC0000011241FBE34
:1070B000CFEFDAE0DEBFCDBF11E0A0E0B1E0EEE25D
:1070C000FEE702C005900D92AC38B107D9F711E088
:1070D000ACE8B1E001C01D92AD39B107E1F7F2D2E1
:1070E000A4C68ECF84E08093E9000DC08091E800B3
:1070F0008B778093E80003C08EB3882351F0809192
:10710000E80082FFF9CF8091E80085FFEFCF809102
:10711000F1000895982F83E08093E9008091E800C2
:1071200085FD0DC08091E8008E778093E80003C054
:107130008EB3882331F08091E80080FFF9CF9093DF
:10714000F10008954F925F926F927F928F929F927B
:10715000AF92BF92CF92DF92EF92FF920F931F9365
:10716000CF93DF9384E08093E9008091E80082FF71
:1071700044C210928C01B6DF082F8C3409F43BC056
:107180008035C9F1843529F0853429F410920F0136
:1071900032C0A8DF30C0843721F484E4BBDF80E054
:1071A00002C2813611F489E5FEC1813431F59ADFDE
:1071B000F82EFF0CEE240027F7FC0095102FE0922C
:1071C0008F01F092900100939101109392018ADF58
:1071D00090E0880F991FAA2797FDA095BA2F8E29B6
:1071E0009F29A02BB12B80938F0190939001A093A6
:1071F0009101B09392018DE0D6C1803711F483E5FF
:10720000D2C1833549F4C0E0D1E0899183DF21E028
:10721000C730D207D1F7C8C1863521F481E37ADFC0
:1072200080E3C1C1833731F487E874DF85E972DF19
:107230008EE1B9C1823631F489E56CDF80E06ADF26
:1072400080E8B1C18536B9F4E0E0F0E093E085E094
:1072500090935700E89507B600FCFDCF8093570048
:10726000E89507B600FCFDCFEF57FF4F20E7EF355D
:10727000F20771F7C0CF8C3651F434DF809599E076
:10728000E1E0F0E0082E90935700E895B4CF823704
:1072900039F4E1E0F0E089E080935700849183C104
:1072A000863439F4E0E0F0E089E08093570084917F
:1072B0007AC18E3439F4E3E0F0E089E0809357003E
:1072C000849171C1813539F4E2E0F0E089E0809386
:1072D0005700849168C1833471F400918F0110913B
:1072E000900100DF90E021E0F8010C0120935700AD
:1072F000E895112480CF833679F400918F011091A5
:1073000090010160EFDE90E021E0F8010C01209394
:107310005700E895112414C18D3661F4E0918F0176
:10732000F091900185E080935700E89507B600FC46
:10733000FDCF61CF823419F0873609F0E3C0D2DE89
:10734000E82ED0DED82ECEDEA82E8554823008F06E
:1073500029C19E2D80E0CD2DD0E0C82BD92B07363A
:1073600009F052C081E180935700E89500E011E0F8
:1073700047C0F6E4AF1611F5E02FF0E080918F01E1
:1073800090919001E82BF92BE4918E2FC3DE00231E
:1073900099F080918F0190919001A0919101B0910D
:1073A00092010296A11DB11D80938F0190939001CF
:1073B000A0939101B0939201012721C080918F0188
:1073C00090919001A0919101B0919201B695A795ED
:1073D0009795879514D59EDE80918F0190919001AD
:1073E000A0919101B09192010296A11DB11D8093CF
:1073F0008F0190939001A0939101B09392012197F6
:10740000209709F0B6CFD0C060908F0170909001A6
:10741000809091019090920126E4A21609F05EC03E
:1074200083E0F30180935700E89507B600FCFDCF99
:1074300055C0F6E4AF1669F5BB2031F100918F011C
:10744000109190014FDED82ECC24852D90E08C2910
:107450009D29F8010C0140925700E8951124809174
:107460008F0190919001A0919101B09192010296AB
:10747000A11DB11D80938F0190939001A093910164
:10748000B0939201BB2428C02DDE582EBB24B394A8
:1074900023C0E0908F01F090900100919101109134
:1074A000920116950795F794E7941CDE682FC701A3
:1074B000AED480918F0190919001A0919101B091F3
:1074C00092010296A11DB11D80938F0190939001AE
:1074D000A0939101B0939201219704C05524BB243D
:1074E00044244394209709F0A4CFF6E4AF1609F0A2
:1074F00082CE85E0F30180935700E89507B600FC43
:10750000FDCF79CE823551F4E0918F01F091900159
:1075100005911491812FFEDD802F45C08434E1F464
:10752000E0908F01F09090010091910110919201F3
:1075300016950795F794E794D5DD682FC70167D4B2
:1075400080918F0190919001A0919101B091920151
:107550000296A11DB11D47CE843611F580918F0191
:1075600090919001A0919101B0919201B695A7954B
:107570009795879544D4CEDD80918F0190919001AD
:10758000A0919101B09192010296A11DB11D80932D
:107590008F0190939001A0939101B093920104C048
:1075A0008B3111F08FE3B6DD83E08093E900909199
:1075B000E8008091E8008E778093E80095FF04C092
:1075C00010C08EB38823C9F08091E80080FFF9CF06
:1075D0008091E8008E778093E80003C08EB3882303
:1075E00061F08091E80080FFF9CF84E08093E900AA
:1075F0008091E8008B778093E800DF91CF911F9115
:107600000F91FF90EF90DF90CF90BF90AF909F9041
:107610008F907F906F905F904F900895809196012A
:107620008032B1F0813239F580919501813A19F5B6
:107630008091E800877F8093E80088E091E067E030
:1076400070E023D38091E8008B778093E800089561
:1076500080919501813279F48091E800877F809351
:10766000E80088E091E067E070E073D38091E80083
:107670008E778093E800089582E061EC42E0ADD01F
:1076800083E061E842E1A9D084E060E842E1A5C07E
:1076900084B7877F84BF88E10FB6F8948093600039
:1076A000109260000FBE80E090E020E80FB6F894E2
:1076B00020936100809361000FBE81E085BF82E06E
:1076C00085BF02C1FF920F931F93CF93DF9324B71F
:1076D00014BE809160008861809360001092600009
:1076E00010928C0130E0F901E270F07021FD0AC0C7
:1076F000859194918F5F9F4F29F0E0918D01F091DA
:107700008E010995C5DF6E9A769A7894FF2410E071
:1077100001E0E0E0F0E0C591D49121C013DD5DD33C
:10772000F39411F4100F769AF11609F476981F3F2E
:1077300011F40FEF0AC0112341F4013031F08091B0
:107740008C018F5F80938C0101E080918C018530EA
:1077500030F08FEFCF3FD80711F010920F018091DA
:107760000F018823D9F68091E00081608093E000CA
:107770002CE088E190E00FB6F894A8958093600023
:107780000FBE20936000FFCFFA01923071F093306A
:1077900089F0913029F480E191E022E130E019C0D4
:1077A00080E090E020E030E014C082E291E02EE33F
:1077B00030E00FC0882339F480916001282F30E039
:1077C00080E691E006C080916401282F30E084E6D5
:1077D00091E091838083C90108958093E9008091AD
:1077E000EB0081608093EB001092ED006093EC0061
:1077F0004093ED008091EE00881F8827881F089530
:107800008091950188238CF403C08EB38823B1F056
:107810008091E80082FFF9CF8091E8008B77809318
:10782000E80008958EB3882349F08091E80080FF36
:10783000F9CF8091E8008E778093E80008954DD0CD
:1078400054D08091D800982F9F779093D80080686B
:107850008093D8008AE482BF80E189BD89B58260C7
:1078600089BD09B400FEFDCF8091D8008F7D809343
:10787000D8001EBA109293018091E0008B7F809314
:10788000E0008091D80081608093D80080E060E0C3
:1078900042E0A3DF8091E1008E7F8093E100809140
:1078A000E20081608093E2008091E2008860809332
:1078B000E2008091E0008E7F8093E0008091D8000C
:1078C00080618093D8000895E7EDF0E080818160C9
:1078D000808381E080939401B2CFE8EDF0E0808175
:1078E0008E7F80831092E20008951092DA00109249
:1078F000E10008951F920F920FB60F9211242F935B
:107900003F934F935F936F937F938F939F93AF9327
:10791000BF93EF93FF938091DA0080FF13C08091B3
:10792000D80080FF0FC08091DA008E7F8093DA004C
:107930008091D90080FF04C081E08EBBA5D102C038
:107940001EBAA2D18091E10080FF1CC08091E200AC
:1079500080FF18C08091E1008E7F8093E1008091CC
:10796000E2008E7F8093E2008091E200806180934C
:10797000E2008091D80080628093D80019BC85E035
:107980008EBB82D18091E10084FF2DC08091E20006
:1079900084FF29C080E189BD89B5826089BD09B4B1
:1079A00000FEFDCF8091D8008F7D8093D80080911C
:1079B000E1008F7E8093E1008091E2008F7E8093D2
:1079C000E2008091E20081608093E2008091930167
:1079D000882331F48091E30087FD02C081E001C07B
:1079E00084E08EBB51D18091E10083FF21C0809162
:1079F000E20083FF1DC08091E100877F8093E1005A
:107A000082E08EBB109293018091E1008E7F809383
:107A1000E1008091E2008E7F8093E2008091E2009D
:107A200080618093E20080E060E042E0D6DE2CD10D
:107A30008091E10082FF0AC08091E20082FF06C0CF
:107A40008091E1008B7F8093E1001ED1FF91EF9147
:107A5000BF91AF919F918F917F916F915F914F9166
:107A60003F912F910F900FBE0F901F9018950F937D
:107A70001F93DF93CF9300D0CDB7DEB7E5E9F1E0F8
:107A80008091F100819381E0ED39F807C9F7809189
:107A9000950190919601953009F46DC0963040F4AF
:107AA000913081F1913070F0933009F0D7C02AC045
:107AB000983009F4A5C0993009F4B4C0963009F0A3
:107AC000CDC07EC0803809F4CAC0823809F0C6C073
:107AD0008091990187708093E9008091EB0010926A
:107AE000E9002091E800277F2093E80090E025E05E
:107AF000969587952A95E1F781708093F100109211
:107B0000F10089C0882319F0823009F0A7C08F7175
:107B1000823009F0A4C080919701882331F520912B
:107B20009901277009F49BC02093E9008091EB0034
:107B300080FF1BC0933021F48091EB00806213C062
:107B40008091EB0080618093EB0081E090E002C0C7
:107B5000880F991F2A95E2F78093EA001092EA00B5
:107B60008091EB0088608093EB001092E900809197
:107B7000E800877F53C0882309F070C010919701F7
:107B80001F770FB7F8948091E800877F8093E80013
:107B900037DE8091E80080FFFCCF112311F482E0F2
:107BA00001C083E08EBB8091E3008078182B109396
:107BB000E3008091E30080688093E3000FBF4FC033
:107BC0008058823008F04AC08091970190919801C6
:107BD00060919901AE014F5F5F4FD6DDBC01009708
:107BE00009F43DC08091E800877F8093E800898197
:107BF0009A814BD08091E8008B778093E8002FC06A
:107C0000803861F58091E800877F8093E80080915B
:107C100093018093F1008091E8008E778093E800D3
:107C2000EFDD1DC08823D1F4909197019230B8F414
:107C30008091E800877F8093E80090939301E0DDD6
:107C400080919301882331F48091E30087FD02C085
:107C500081E001C084E08EBB0FDD01C0DFDC8091DC
:107C6000E80083FF0AC08091EB0080628093EB0004
:107C70008091E800877F8093E8000F900F90CF916C
:107C8000DF911F910F91089508959C0140919B01F0
:107C900050919C014617570718F4F90190E044C031
:107CA0006115710511F0AB01F8CF8091E8008E7776
:107CB0008093E80040E050E0F0CF8EB3882309F4D1
:107CC00044C0853009F443C08091E80083FF02C0BE
:107CD00081E008958091E80082FD31C08091E80044
:107CE00080FF22C08091F3009091F200782F60E035
:107CF000292F30E0262B372B07C081918093F1008C
:107D0000415050402F5F3F4F4115510519F0283029
:107D1000310598F390E02830310509F491E0809125
:107D2000E8008E778093E8004115510531F69923DC
:107D300021F605C08EB3882341F0853041F0809153
:107D4000E80082FFF7CF80E0089582E0089583E0A5
:107D500008959C016115710529F48091E8008B77E5
:107D60008093E800F90126C08EB3882391F1853015
:107D700091F18091E80083FF02C081E00895809135
:107D8000E80082FFF1CF06C08091F100819361503D
:107D9000704059F02091F3008091F200322F20E0E2
:107DA00090E0822B932B892B79F78091E8008B77D9
:107DB0008093E80061157105B9F605C08EB388237C
:107DC00041F0853041F08091E80080FFF7CF80E0FE
:107DD000089582E0089583E008951F938EB3882369
:107DE00061F01091E9001092E9008091E80083FFB2
:107DF00001C03DDE17701093E9001F910895F999B5
:107E0000FECF92BD81BDF89A992780B50895262F9F
:107E1000F999FECF1FBA92BD81BD20BD0FB6F8946F
:107E2000FA9AF99A0FBE01960895F894FFCF4C552F
:107E300046414344430000000000000008011201D5
:107E40001001020000089A23010001000001000156
:107E500009023E0002010080320904000001020212
:107E60000100052400100104240204052406000179
:107E70000705820308000209040100020A0000004D
:107E80000705040210000007058302100000040328
:107E9000090426034100560052002000430044001C
:107EA0004300200042006F006F0074006C006F0000
:0A7EB000610064006500720000002C
:00000001FF
